{
  "address": "0x5C8BA05fa9324cD6422A224D19aCB9aB2f684e9B",
  "abi": [
    {
      "anonymous": false,
      "inputs": [
        {
          "indexed": false,
          "internalType": "uint64",
          "name": "donatedFinney",
          "type": "uint64"
        },
        {
          "indexed": false,
          "internalType": "string",
          "name": "name",
          "type": "string"
        },
        {
          "indexed": false,
          "internalType": "uint16",
          "name": "months",
          "type": "uint16"
        },
        {
          "indexed": false,
          "internalType": "uint16",
          "name": "currentMonth",
          "type": "uint16"
        },
        {
          "indexed": false,
          "internalType": "uint16",
          "name": "currentYear",
          "type": "uint16"
        }
      ],
      "name": "Donated",
      "type": "event"
    },
    {
      "anonymous": false,
      "inputs": [
        {
          "indexed": false,
          "internalType": "uint32",
          "name": "shareFinney",
          "type": "uint32"
        },
        {
          "indexed": false,
          "internalType": "uint32",
          "name": "transferDateId",
          "type": "uint32"
        },
        {
          "indexed": false,
          "internalType": "uint16",
          "name": "transferFromDonationBucketPos",
          "type": "uint16"
        },
        {
          "indexed": false,
          "internalType": "uint16",
          "name": "month",
          "type": "uint16"
        },
        {
          "indexed": false,
          "internalType": "uint16",
          "name": "year",
          "type": "uint16"
        }
      ],
      "name": "RemovedFromDonationBucket",
      "type": "event"
    },
    {
      "anonymous": false,
      "inputs": [
        {
          "indexed": false,
          "internalType": "uint256",
          "name": "amount",
          "type": "uint256"
        },
        {
          "indexed": false,
          "internalType": "address",
          "name": "to",
          "type": "address"
        },
        {
          "indexed": false,
          "internalType": "uint16",
          "name": "month",
          "type": "uint16"
        },
        {
          "indexed": false,
          "internalType": "uint16",
          "name": "year",
          "type": "uint16"
        }
      ],
      "name": "TransferedFairShare",
      "type": "event"
    },
    {
      "anonymous": false,
      "inputs": [
        {
          "indexed": false,
          "internalType": "string",
          "name": "url",
          "type": "string"
        },
        {
          "indexed": false,
          "internalType": "bool",
          "name": "up",
          "type": "bool"
        },
        {
          "indexed": false,
          "internalType": "string",
          "name": "title",
          "type": "string"
        },
        {
          "indexed": false,
          "internalType": "address",
          "name": "receiver",
          "type": "address"
        },
        {
          "indexed": false,
          "internalType": "address",
          "name": "sender",
          "type": "address"
        }
      ],
      "name": "Voted",
      "type": "event"
    },
    {
      "inputs": [
        {
          "internalType": "uint16",
          "name": "months",
          "type": "uint16"
        },
        {
          "internalType": "string",
          "name": "name",
          "type": "string"
        },
        {
          "internalType": "uint16",
          "name": "currentMonth",
          "type": "uint16"
        },
        {
          "internalType": "uint16",
          "name": "currentYear",
          "type": "uint16"
        }
      ],
      "name": "donate",
      "outputs": [],
      "stateMutability": "payable",
      "type": "function"
    },
    {
      "inputs": [],
      "name": "setDonatingActive",
      "outputs": [],
      "stateMutability": "nonpayable",
      "type": "function"
    },
    {
      "inputs": [],
      "name": "setDonatingInactive",
      "outputs": [],
      "stateMutability": "nonpayable",
      "type": "function"
    },
    {
      "inputs": [
        {
          "internalType": "address payable",
          "name": "to",
          "type": "address"
        },
        {
          "internalType": "uint16",
          "name": "month",
          "type": "uint16"
        },
        {
          "internalType": "uint16",
          "name": "year",
          "type": "uint16"
        },
        {
          "internalType": "uint16",
          "name": "currentMonth",
          "type": "uint16"
        },
        {
          "internalType": "uint16",
          "name": "currentYear",
          "type": "uint16"
        }
      ],
      "name": "transfer",
      "outputs": [],
      "stateMutability": "nonpayable",
      "type": "function"
    },
    {
      "inputs": [
        {
          "internalType": "string",
          "name": "url",
          "type": "string"
        },
        {
          "internalType": "bool",
          "name": "up",
          "type": "bool"
        },
        {
          "internalType": "address",
          "name": "receiver",
          "type": "address"
        },
        {
          "internalType": "string",
          "name": "title",
          "type": "string"
        },
        {
          "internalType": "uint16",
          "name": "currentMonth",
          "type": "uint16"
        },
        {
          "internalType": "uint16",
          "name": "currentYear",
          "type": "uint16"
        }
      ],
      "name": "vote",
      "outputs": [],
      "stateMutability": "nonpayable",
      "type": "function"
    }
  ],
  "transactionHash": "0x2fd3b55db3299e901bb64c7bb0ee5365ef23346192eeaac423973ed361386e7a",
  "args": [],
  "numDeployments": 2,
  "solcInputHash": "dffe47757a9c17a71890fcfa6f28db35",
  "bytecode": "0x6080604052346100c6576100b76100146100cb565b60008082528060208301528060408301528060608301528060808301528060a08301528060c08301528060e08301528061010083015280610120830152806101408301528061016083015280610180830152806101a0830152806101c0830152806101e08301528061020083015280610220830152806102408301528061026083015280610280830152806102a0830152806102c08301526102e0820152610104565b60405161127e90816101638239f35b600080fd5b6040519061030082016001600160401b038111838210176100eb57604052565b505050634e487b7160e01b600052604160045260246000fd5b600090819082905b6018821061011a5750505050565b60208160ff600493511685548760031b63ffffffff811b9283911b1691191617855501930190601c8211610153575b600101909261010c565b6001909201916000915061014956fe6040608081526004361015610015575b50600080fd5b600090813560e01c80635f592bb5146100c5578063ad3337a2146100af578063afd4e2b414610094578063c3269df91461007d5763d61bcd8c14610059575061000f565b346100795761007661006a36610284565b94939093929192610a06565b51f35b5080fd5b50346100795761008c366100dc565b6100766103b3565b5034610079576100766100a636610222565b93929092610e49565b506100766100bc366101aa565b9291909161077c565b5034610079576100d4366100dc565b610076610361565b600090600319011261000f57565b60a4359061ffff82168214156100fc57565b5050600080fd5b50634e487b7160e01b600052604160045260246000fd5b81601f820112156101a25780359067ffffffffffffffff92838311610195575b60405193601f8401601f19908116603f0116850190811185821017610188575b6040528284526020838301011161017f57816000926020809301838601378301015290565b50505050600080fd5b610190610103565b61015a565b61019d610103565b61013a565b505050600080fd5b9060806003198301126100fc5761ffff60043581811681141561017f57926024359067ffffffffffffffff8211610206576101e79160040161011a565b9160443582811681141561020657916064359081168114156102065790565b5050505050600080fd5b6001600160a01b038116141561000f57565b60a090600319011261000f5760043561023a81610210565b9061ffff9060243582811681141561017f5791604435818116811415610206579160643582811681141561027957916084359081168114156102795790565b505050505050600080fd5b60c06003198201126100fc5767ffffffffffffffff9060043582811161017f57816102b19160040161011a565b9260243580151581141561020657926044356102cc81610210565b92606435918211610279576102e39160040161011a565b9060843561ffff811681141561027957906102fc6100ea565b90565b1561030657565b5060405162461bcd60e51b815260206004820152602c60248201527f4f6e6c79206f776e657220697320616c6c6f77656420746f20706572666f726d60448201526b103a3434b99030b1ba34b7b760a11b6064820152608490fd5b61039560018060a01b037fc8fcad8db84d3cc18b4c41d551ea0ee66dd599cde068d998e57d5e09332c1320541633146102ff565b60008051602061121b833981519152805461ff001916610100179055565b6103e760018060a01b037fc8fcad8db84d3cc18b4c41d551ea0ee66dd599cde068d998e57d5e09332c1320541633146102ff565b60008051602061121b833981519152805461ff0019169055565b1561040857565b50606460405162461bcd60e51b815260206004820152602060248201527f4f6e6c79207570746f203234206d6f6e74687320697320737570706f727465646044820152fd5b50634e487b7160e01b600052601260045260246000fd5b811561046e570690565b61047661044d565b0690565b1561048157565b5060405162461bcd60e51b815260206004820152603860248201527f506179656420616d6f756e74206d75737420626520646576696461626c65206260448201527f7920746865206469737472696275746564206d6f6e74687300000000000000006064820152608490fd5b156104f457565b5060405162461bcd60e51b815260206004820152603a60248201527f4c657373207468616e20312066696e6e657928312f313030302045544829206660448201527f72616374696f6e7320617265206e6f7420737570706f727465640000000000006064820152608490fd5b50634e487b7160e01b600052601160045260246000fd5b8115610581570490565b61058961044d565b0490565b1561059457565b5060405162461bcd60e51b815260206004820152603c60248201527f446f6e6174696f6e73206c6172676572207468616e20315f3030305f3030305f60448201527f3030302066696e6e657920617265206e6f7420737570706f72746564000000006064820152608490fd5b600c9061ffff80911680910482118115151661061a570290565b610622610560565b0290565b61ffff6001911661fffe811161063a570190565b610642610560565b0190565b9061ffff808093169116809203811161063a570190565b61ffff9182169116818110610670570390565b610678610560565b0390565b60019063ffffffff80911690811461063a570190565b9063ffffffff808093169116809203811161063a570190565b50634e487b7160e01b600052603260045260246000fd5b9060188210156106db575b601c8260031c9260021b1690565b6106e36106ab565b6106cd565b91908251928382526000905b848210610721575092806020939411610714575b601f01601f1916010190565b6000838284010152610708565b906020908180828501015190828601015201906106f4565b93916107629067ffffffffffffffff60809598979316865260a0602087015260a08601906106e8565b9561ffff9283809216604087015216606085015216910152565b93909161ffff85169361079160198610610401565b6107a461079e8634610464565b1561047a565b66038d7ea4c680006107b8813406156104ed565b3404916107cb633b9aca0084111561058d565b6107e16107d88785610577565b63ffffffff1690565b9661082661081f6108026107fd856107f888610600565b610646565b610626565b60008051602061121b8339815191525460101c61ffff169061065d565b61ffff1690565b96875b6108366107d8838b610692565b63ffffffff8216908110156108b657916108ad6107d8926108a88d610886610880603061083699069261087b61086b856106c2565b905463ffffffff9160031b1c1690565b610692565b916106c2565b90919082549060031b9163ffffffff9283811b93849216901b16911916179055565b61067c565b91509150610829565b5050506108fa939497507f6a7f8439932380592f144688013b66f9f08c6c8571bc599d1b18ceae2cf67ed3965067ffffffffffffffff956040519687961686610739565b0390a1565b8119811161063a570190565b8054821015610924575b60005260206000200190600090565b61092c6106ab565b610915565b80546109549168010000000000000000821015610977575b60018201815561090b565b819291549060031b9160018060a01b039283811b93849216901b16911916179055565b61097f610103565b610949565b60030b637fffffff19811461099b575b6000190190565b6109a3610560565b610994565b60019060030b637fffffff811461063a570190565b93916080936109da6109ef9398979860a0885260a08801906106e8565b911515602087015285820360408701526106e8565b6001600160a01b0391821660608501529416910152565b909293916108fa927fbe341f6f6a7d9bc7a1b3a4b9a8ee5c3f7c504c067b5de2fff0868cfb6e06f28d9661111160901b8084161415610a50575b50506040519485943393866109bd565b610a60916107f861081f92610600565b610a7f63ffffffff8216601484901b62100000600160b41b03166108ff565b9082610aa6610aa2610a9b856000526005602052604060002090565b5460ff1690565b1590565b610b28575b50508415610af957610aca610af2916000526004602052604060002090565b610add610ad8825460030b90565b6109a8565b63ffffffff198254169063ffffffff16179055565b3880610a40565b610b10610b23916000526004602052604060002090565b610add610b1e825460030b90565b610984565b610af2565b610b8d610b9292610b53610b46866000526005602052604060002090565b805460ff19166001179055565b610b77610b6a866000526004602052604060002090565b805463ffffffff19169055565b63ffffffff166000526003602052604060002090565b610931565b3882610aab565b15610ba057565b5060405162461bcd60e51b815260206004820152604260248201527f596f75722063616e206f6e6c79207472616e7366657220796f7572207368617260448201527f6520666f72206d6f6e7468206265666f7265207468652063757272656e74206f6064820152616e6560f01b608482015260a490fd5b63ffffffff9182169116818110610670570390565b15610c3357565b5060405162461bcd60e51b815260206004820152603360248201527f596f75722063616e2774207472616e7366657220736861726573206d6f7265206044820152723a3430b710191a1036b7b73a34399030b3b79760691b6064820152608490fd5b15610c9c57565b5060405162461bcd60e51b815260206004820152601860248201527f536861726520616c7265616479207472616e73666572656400000000000000006044820152606490fd5b15610ce957565b5060405162461bcd60e51b815260206004820152602a60248201527f596f752068617665206e6f7420656e6f756768207570766f74657320746f20626044820152696520656c696769626c6560b01b6064820152608490fd5b600190600019811461063a570190565b9067ffffffffffffffff808093169116809203811161063a570190565b63ffffffff918280921691829116920482118115151661061a570290565b9067ffffffffffffffff809116918215610da657160490565b610dae61044d565b160490565b15610dba57565b5060405162461bcd60e51b815260206004820152602f60248201527f4e6f7420656e6f75676820646f6e6174696f6e7320666f722074686174206d6f60448201526e373a34399030bb30b4b630b136329760891b6064820152608490fd5b66ffffffffffffff8091168066038d7ea4c68000920482118115151661061a570290565b506040513d6000823e3d90fd5b93610e5b91936107f861081f92610600565b610e6b61081f846107f885610600565b9463ffffffff92610e99601885610e928a82811697610e8d8482168a10610b99565b610c17565b1610610c2c565b610ea6833360141b6108ff565b90610ec7610ec1610a9b846000526006602052604060002090565b15610c95565b600095610ef587610eec610ee5866000526004602052604060002090565b5460030b90565b60030b13610ce2565b8695875b610f138b63ffffffff166000526003602052604060002090565b54811015610fe357610f7b87610f76610f70610f648f610f4f87610f4a610f649363ffffffff166000526003602052604060002090565b61090b565b905460039190911b1c6001600160a01b031690565b6001600160a01b031690565b60141b90565b6108ff565b89610f9c610f96610ee5846000526004602052604060002090565b60030b90565b13610fb1575b50610fac90610d42565b610ef9565b610fac9198610fd66107d86107d8610ee5610fdc956000526004602052604060002090565b90610d52565b9790610fa2565b50909295919398969788955060008051602061121b8339815191525460101c61ffff166110119061ffff1690565b61101b9089610c17565b603061ffff91909116069261102f846106c2565b905460039190911b1c63ffffffff16611052896000526004602052604060002090565b5460030b63ffffffff1661106591610d6f565b63ffffffff169061107591610d8d565b63ffffffff1696611085846106c2565b905460039190911b1c63ffffffff168389169384911610156110a690610db3565b6110af846106c2565b81548a90600383901b1c63ffffffff16906110c991610c17565b825463ffffffff60039390931b83811b80199092169390921690911b161790556110fd906000526006602052604060002090565b805460ff1916600117905561111182610e18565b869066ffffffffffffff1692878085159c6108fa9a7feb338d42e19428a462947fce4ff0c28c2ccae6f7ecdb16beb0dc981f98ae967c977fd60ef7047ec8bfc45d19c2ec01830d929258bf2a7ae675fde3dab44fa17f2f769f9661118a97611211575b6001600160a01b03891690f11561120457610e18565b6040805166ffffffffffffff9290921682526001600160a01b0392909216602082015261ffff858116928201929092529085166060820152608090a16040519586958693919594909260809360a086019763ffffffff809216875216602086015261ffff9283809216604087015216606085015216910152565b61120c610e3c565b610e18565b506108fc61117456fe033cb808a453240b3c9916e6d1ccc504e492e2b2453192ff241c73847a521d06a3646970667358221220849bb003ec22504606e52e696c58a1ea2138fd630ae41459d9d2b1419cec89cf6c6578706572696d656e74616cf564736f6c634300080a0041",
  "devdoc": {
    "details": "Implementation of https://eips.ethereum.org/EIPS/eip-721[ERC721] Non-Fungible Token Standard, including the Metadata extension, but not including the Enumerable extension, which is available separately as {ERC721Enumerable}.",
    "kind": "dev",
    "methods": {},
    "version": 1
  },
  "userdoc": {
    "kind": "user",
    "methods": {},
    "version": 1
  },
  "storageLayout": {
    "storage": [
      {
        "astId": 1895,
        "contract": "contracts/PeoplesPlatformFacet.sol:PeoplesPlatformFacet",
        "label": "_donationBuckets",
        "offset": 0,
        "slot": "0",
        "type": "t_array(t_uint32)24_storage"
      },
      {
        "astId": 1900,
        "contract": "contracts/PeoplesPlatformFacet.sol:PeoplesPlatformFacet",
        "label": "_dateIdAddresses",
        "offset": 0,
        "slot": "3",
        "type": "t_mapping(t_uint32,t_array(t_address)dyn_storage)"
      },
      {
        "astId": 1904,
        "contract": "contracts/PeoplesPlatformFacet.sol:PeoplesPlatformFacet",
        "label": "_dateAddressIdVoteValues",
        "offset": 0,
        "slot": "4",
        "type": "t_mapping(t_uint256,t_int32)"
      },
      {
        "astId": 1908,
        "contract": "contracts/PeoplesPlatformFacet.sol:PeoplesPlatformFacet",
        "label": "_dateAddressIdHasVotes",
        "offset": 0,
        "slot": "5",
        "type": "t_mapping(t_uint256,t_bool)"
      },
      {
        "astId": 1912,
        "contract": "contracts/PeoplesPlatformFacet.sol:PeoplesPlatformFacet",
        "label": "_monthAddressHasTransfered",
        "offset": 0,
        "slot": "6",
        "type": "t_mapping(t_uint256,t_bool)"
      }
    ],
    "types": {
      "t_address": {
        "encoding": "inplace",
        "label": "address",
        "numberOfBytes": "20"
      },
      "t_array(t_address)dyn_storage": {
        "base": "t_address",
        "encoding": "dynamic_array",
        "label": "address[]",
        "numberOfBytes": "32"
      },
      "t_array(t_uint32)24_storage": {
        "base": "t_uint32",
        "encoding": "inplace",
        "label": "uint32[24]",
        "numberOfBytes": "96"
      },
      "t_bool": {
        "encoding": "inplace",
        "label": "bool",
        "numberOfBytes": "1"
      },
      "t_int32": {
        "encoding": "inplace",
        "label": "int32",
        "numberOfBytes": "4"
      },
      "t_mapping(t_uint256,t_bool)": {
        "encoding": "mapping",
        "key": "t_uint256",
        "label": "mapping(uint256 => bool)",
        "numberOfBytes": "32",
        "value": "t_bool"
      },
      "t_mapping(t_uint256,t_int32)": {
        "encoding": "mapping",
        "key": "t_uint256",
        "label": "mapping(uint256 => int32)",
        "numberOfBytes": "32",
        "value": "t_int32"
      },
      "t_mapping(t_uint32,t_array(t_address)dyn_storage)": {
        "encoding": "mapping",
        "key": "t_uint32",
        "label": "mapping(uint32 => address[])",
        "numberOfBytes": "32",
        "value": "t_array(t_address)dyn_storage"
      },
      "t_uint256": {
        "encoding": "inplace",
        "label": "uint256",
        "numberOfBytes": "32"
      },
      "t_uint32": {
        "encoding": "inplace",
        "label": "uint32",
        "numberOfBytes": "4"
      }
    }
  }
}