{
  "address": "0xc279b9e4d4710641616D3D45ea28D1193031aE2f",
  "abi": [
    {
      "inputs": [],
      "stateMutability": "nonpayable",
      "type": "constructor"
    },
    {
      "inputs": [],
      "name": "init",
      "outputs": [],
      "stateMutability": "nonpayable",
      "type": "function"
    }
  ],
  "transactionHash": "0xa4cd060753f56746a107a93702830d435d41e328cf1644a7c010fc3d280ab783",
  "args": [],
  "numDeployments": 4,
  "solcInputHash": "e03dd5e9e38e7ccad8cfbc187cfcf8a0",
  "bytecode": "0x60806040523461007a577fc8fcad8db84d3cc18b4c41d551ea0ee66dd599cde068d998e57d5e09332c13208054336001600160a01b0319821681179092556001600160a01b03167f8be0079c531659141344cd1fd0a4f28419497f9722a3daafe3b4186f6b6457e060006080a36101dc806100806080396080f35b600080fdfe6080604052600436101561001257600080fd5b6000803560e01c63e1c7392a146100295750600080fd5b346100ca57806003193601126100ca577fc8fcad8db84d3cc18b4c41d551ea0ee66dd599cde068d998e57d5e09332c1320546001600160a01b0316331415610078576100736100cd565b604051f35b5062461bcd60e51b6080526020608452602c60a4527f4f6e6c79206f776e657220697320616c6c6f77656420746f20706572666f726d60c4526b103a3434b99030b1ba34b7b760a11b60e45260846080fd5b80fd5b7f033cb808a453240b3c9916e6d1ccc504e492e2b2453192ff241c73847a521d06805460ff81166101945761ff0019166101001781557fc8fcad8db84d3cc18b4c41d551ea0ee66dd599cde068d998e57d5e09332c131f6020527ff97e938d8af42f52387bb74b8b526fda8f184cc2aa534340a8d75a88fbecc775805460ff1990811660019081179092556348e2b09360e01b6000527f65d510a5d8f7ef134ec444f7f34ee808c8eeb5177cdfd16be0c40fe1ab4336958054821683179055825416179055565b505056fea3646970667358221220c22073a3df0d424e4608b76af18ecb0a8b2fe52d1e8021af3d9241a58ee375966c6578706572696d656e74616cf564736f6c634300080a0041",
  "devdoc": {
    "kind": "dev",
    "methods": {},
    "version": 1
  },
  "userdoc": {
    "kind": "user",
    "methods": {},
    "version": 1
  },
  "storageLayout": {
    "storage": [],
    "types": null
  }
}