{
  "address": "0x41A9a3C9Ffb75b1020f882b4a4eB1cef8F3EA5AF",
  "abi": [
    {
      "anonymous": false,
      "inputs": [
        {
          "indexed": false,
          "internalType": "string",
          "name": "url",
          "type": "string"
        },
        {
          "indexed": false,
          "internalType": "bool",
          "name": "up",
          "type": "bool"
        },
        {
          "indexed": false,
          "internalType": "string",
          "name": "title",
          "type": "string"
        }
      ],
      "name": "Voted",
      "type": "event"
    },
    {
      "inputs": [
        {
          "internalType": "uint16",
          "name": "months",
          "type": "uint16"
        },
        {
          "internalType": "uint16",
          "name": "currentMonth",
          "type": "uint16"
        },
        {
          "internalType": "uint16",
          "name": "currentYear",
          "type": "uint16"
        }
      ],
      "name": "donate",
      "outputs": [],
      "stateMutability": "payable",
      "type": "function"
    },
    {
      "inputs": [],
      "name": "setDonatingActive",
      "outputs": [],
      "stateMutability": "nonpayable",
      "type": "function"
    },
    {
      "inputs": [
        {
          "internalType": "address payable",
          "name": "to",
          "type": "address"
        },
        {
          "internalType": "uint16",
          "name": "month",
          "type": "uint16"
        },
        {
          "internalType": "uint16",
          "name": "year",
          "type": "uint16"
        },
        {
          "internalType": "uint16",
          "name": "currentMonth",
          "type": "uint16"
        },
        {
          "internalType": "uint16",
          "name": "currentYear",
          "type": "uint16"
        }
      ],
      "name": "transfer",
      "outputs": [],
      "stateMutability": "nonpayable",
      "type": "function"
    },
    {
      "inputs": [
        {
          "internalType": "string",
          "name": "url",
          "type": "string"
        },
        {
          "internalType": "bool",
          "name": "up",
          "type": "bool"
        },
        {
          "internalType": "address",
          "name": "receiver",
          "type": "address"
        },
        {
          "internalType": "string",
          "name": "title",
          "type": "string"
        },
        {
          "internalType": "uint16",
          "name": "currentMonth",
          "type": "uint16"
        },
        {
          "internalType": "uint16",
          "name": "currentYear",
          "type": "uint16"
        }
      ],
      "name": "vote",
      "outputs": [],
      "stateMutability": "nonpayable",
      "type": "function"
    }
  ],
  "transactionHash": "0xf8f9533d200d0d1cd5c03c97df5c3319fb9623ab9313c1b6ef9aab66d0a43d8e",
  "args": [],
  "numDeployments": 2,
  "solcInputHash": "e03dd5e9e38e7ccad8cfbc187cfcf8a0",
  "bytecode": "0x6080806040523461001657610e1a908161001d8239f35b50600080fdfe6080604052600436101561001257600080fd5b6000803560e01c80635f592bb51461009d578063608bbb7c1461008a578063afd4e2b41461006f5763d61bcd8c1461004a5750600080fd5b3461006c5761006761005b36610241565b94939093929192610881565b604051f35b80fd5b503461006c576100676100813661013f565b93929092610b9f565b50610067610097366100e1565b916105ea565b503461006c576100ac366100b4565b6100676102bc565b60009060031901126100c257565b50600080fd5b60a4359061ffff82168214156100da57565b5050600080fd5b60609060031901126100c25761ffff600435818116811415610125579160243582811681141561011c579160443590811681141561011c5790565b50505050600080fd5b505050600080fd5b6001600160a01b03811614156100c257565b60a09060031901126100c2576004356101578161012d565b9061ffff9060243582811681141561011c57916044358181168114156101a1579160643582811681141561019657916084359081168114156101965790565b505050505050600080fd5b5050505050600080fd5b50634e487b7160e01b600052604160045260246000fd5b81601f820112156101255780359067ffffffffffffffff92838311610234575b60405193601f8401601f19908116603f0116850190811185821017610227575b6040528284526020838301011161011c57816000926020809301838601378301015290565b61022f6101ab565b610202565b61023c6101ab565b6101e2565b60c06003198201126100da5767ffffffffffffffff9060043582811161011c578161026e916004016101c2565b926024358015158114156101a157926044356102898161012d565b92606435918211610196576102a0916004016101c2565b9060843561ffff811681141561019657906102b96100c8565b90565b7fc8fcad8db84d3cc18b4c41d551ea0ee66dd599cde068d998e57d5e09332c1320546001600160a01b031633141561031e577f033cb808a453240b3c9916e6d1ccc504e492e2b2453192ff241c73847a521d06805461ff001916610100179055565b5060405162461bcd60e51b815260206004820152602c60248201527f4f6e6c79206f776e657220697320616c6c6f77656420746f20706572666f726d60448201526b103a3434b99030b1ba34b7b760a11b6064820152608490fd5b1561038057565b50606460405162461bcd60e51b815260206004820152602060248201527f4f6e6c79207570746f203234206d6f6e74687320697320737570706f727465646044820152fd5b50634e487b7160e01b600052601260045260246000fd5b81156103e6570690565b6103ee6103c5565b0690565b156103f957565b5060405162461bcd60e51b815260206004820152603860248201527f506179656420616d6f756e74206d75737420626520646576696461626c65206260448201527f7920746865206469737472696275746564206d6f6e74687300000000000000006064820152608490fd5b1561046c57565b5060405162461bcd60e51b815260206004820152603a60248201527f4c657373207468616e20312066696e6e657928312f313030302045544829206660448201527f72616374696f6e7320617265206e6f7420737570706f727465640000000000006064820152608490fd5b50634e487b7160e01b600052601160045260246000fd5b81156104f9570490565b6105016103c5565b0490565b60649063ffffffff809116809104821181151516610521570290565b6105296104d8565b0290565b63ffffffff9182809216918291169204821181151516610521570290565b61ffff6001911661fffe811161055f570190565b6105676104d8565b0190565b9061ffff808093169116809203811161055f570190565b60019061ffff80911690811461055f570190565b61ffff16600181106105aa575b6000190190565b6105b26104d8565b6105a3565b60649061ffff809116809104821181151516610521570290565b9063ffffffff808093169116809203811161055f570190565b919261ffff9061065061064a8361064361063a82891661060c60198210610379565b61061f61061982346103dc565b156103f2565b66038d7ea4c6800061063381340615610465565b34046104ef565b63ffffffff1690565b9716610505565b9361054b565b93845b610667610660838861056b565b61ffff1690565b84821610156107415761066791610738826107336106d46106a061069b61069061066098610596565b61ffff600c91160490565b6105b7565b896106cc816106c46106bf6106b489610596565b61ffff600c91160690565b61054b565b93168d6105d1565b9116906105d1565b61071e6107078d6107026106f88563ffffffff166000526000602052604060002090565b5463ffffffff1690565b6105d1565b9163ffffffff166000526000602052604060002090565b9063ffffffff1663ffffffff19825416179055565b610582565b91509150610653565b50509350505050565b8119811161055f570190565b805482101561076e5760005260206000200190600090565b505050634e487b7160e01b600052603260045260246000fd5b80546107aa91680100000000000000008210156107cd575b600182018155610756565b819291549060031b9160018060a01b039283811b93849216901b16911916179055565b6107d56101ab565b61079f565b60030b637fffffff1981146105aa576000190190565b60019060030b637fffffff811461055f570190565b91908251928382526000905b84821061083e575092806020939411610831575b601f01601f1916010190565b6000838284010152610825565b90602090818082850101519082860101520190610811565b61086c6102b99492606083526060830190610805565b92151560208201526040818403910152610805565b929093916108bc610953937faefeb4f5b39608c03d50ac9daeb26a46d2f16a75a9afc0ab3280e2429f7c2996976106cc61ffff809216610505565b6108db63ffffffff8216601484901b62100000600160b41b031661074a565b916108fb60ff6108f5856000526003602052604060002090565b54161590565b610987575b505084156109585761091f610947916000526002602052604060002090565b61093261092d825460030b90565b6107f0565b63ffffffff198254169063ffffffff16179055565b60405193849384610856565b0390a1565b61096f610982916000526002602052604060002090565b61093261097d825460030b90565b6107da565b610947565b6109ec6109f1926109b26109a5866000526003602052604060002090565b805460ff19166001179055565b6109d66109c9866000526002602052604060002090565b805463ffffffff19169055565b63ffffffff166000526001602052604060002090565b610787565b3880610900565b156109ff57565b5060405162461bcd60e51b815260206004820152604260248201527f596f75722063616e206f6e6c79207472616e7366657220796f7572207368617260448201527f6520666f72206d6f6e7468206265666f7265207468652063757272656e74206f6064820152616e6560f01b608482015260a490fd5b15610a7d57565b5060405162461bcd60e51b815260206004820152601860248201527f536861726520616c7265616479207472616e73666572656400000000000000006044820152606490fd5b15610aca57565b5060405162461bcd60e51b815260206004820152602a60248201527f596f752068617665206e6f7420656e6f756768207570766f74657320746f20626044820152696520656c696769626c6560b01b6064820152608490fd5b600190600019811461055f570190565b9067ffffffffffffffff808093169116809203811161055f570190565b9067ffffffffffffffff809116918215610b6957160490565b610b716103c5565b160490565b66038d7ea4c68000908060001904821181151516610521570290565b506040513d6000823e3d90fd5b936106cc6106cc91610643610bbe95989661ffff809581809516610505565b91610bd363ffffffff808516951685106109f8565b610be0843360141b61074a565b92610c08610c02610bfb866000526004602052604060002090565b5460ff1690565b15610a76565b600092610c3684610c2d610c26886000526002602052604060002090565b5460030b90565b60030b13610ac3565b8392845b610c548463ffffffff166000526001602052604060002090565b54811015610d2357610cbb88610cb6610cb0610ca4610ca4610c8f87610c8a8c63ffffffff166000526001602052604060002090565b610756565b905460039190911b1c6001600160a01b031690565b6001600160a01b031690565b60141b90565b61074a565b86610cdc610cd6610c26846000526002602052604060002090565b60030b90565b13610cf1575b50610cec90610b23565b610c3a565b610cec9195610d1661063a61063a610c26610d1c956000526002602052604060002090565b90610b33565b9490610ce2565b50909550610da68495610da16109a5610d90610d838998610d7e61063a610d5e6106f88d9c63ffffffff166000526000602052604060002090565b610d7861063a610c268b6000526002602052604060002090565b9061052d565b610b50565b67ffffffffffffffff1690565b926000526004602052604060002090565b610b76565b9082908215610dcc575b6001600160a01b031690f115610dc257565b610dca610b92565b565b6108fc9150610db056fea36469706673582212209d3c0dd9f7674338c7bfcfdd8331280e0fde1f069add211515ac0deed075b14f6c6578706572696d656e74616cf564736f6c634300080a0041",
  "devdoc": {
    "details": "Implementation of https://eips.ethereum.org/EIPS/eip-721[ERC721] Non-Fungible Token Standard, including the Metadata extension, but not including the Enumerable extension, which is available separately as {ERC721Enumerable}.",
    "kind": "dev",
    "methods": {},
    "version": 1
  },
  "userdoc": {
    "kind": "user",
    "methods": {},
    "version": 1
  },
  "storageLayout": {
    "storage": [
      {
        "astId": 1818,
        "contract": "contracts/PeoplesPlatformFacet.sol:PeoplesPlatformFacet",
        "label": "_monthDonationBuckets",
        "offset": 0,
        "slot": "0",
        "type": "t_mapping(t_uint32,t_uint32)"
      },
      {
        "astId": 1823,
        "contract": "contracts/PeoplesPlatformFacet.sol:PeoplesPlatformFacet",
        "label": "_monthIdAddresses",
        "offset": 0,
        "slot": "1",
        "type": "t_mapping(t_uint32,t_array(t_address)dyn_storage)"
      },
      {
        "astId": 1827,
        "contract": "contracts/PeoplesPlatformFacet.sol:PeoplesPlatformFacet",
        "label": "_monthAddresIdVoteValues",
        "offset": 0,
        "slot": "2",
        "type": "t_mapping(t_uint256,t_int32)"
      },
      {
        "astId": 1831,
        "contract": "contracts/PeoplesPlatformFacet.sol:PeoplesPlatformFacet",
        "label": "_monthAddressHasVotes",
        "offset": 0,
        "slot": "3",
        "type": "t_mapping(t_uint256,t_bool)"
      },
      {
        "astId": 1835,
        "contract": "contracts/PeoplesPlatformFacet.sol:PeoplesPlatformFacet",
        "label": "_monthAddressHasTransfered",
        "offset": 0,
        "slot": "4",
        "type": "t_mapping(t_uint256,t_bool)"
      }
    ],
    "types": {
      "t_address": {
        "encoding": "inplace",
        "label": "address",
        "numberOfBytes": "20"
      },
      "t_array(t_address)dyn_storage": {
        "base": "t_address",
        "encoding": "dynamic_array",
        "label": "address[]",
        "numberOfBytes": "32"
      },
      "t_bool": {
        "encoding": "inplace",
        "label": "bool",
        "numberOfBytes": "1"
      },
      "t_int32": {
        "encoding": "inplace",
        "label": "int32",
        "numberOfBytes": "4"
      },
      "t_mapping(t_uint256,t_bool)": {
        "encoding": "mapping",
        "key": "t_uint256",
        "label": "mapping(uint256 => bool)",
        "numberOfBytes": "32",
        "value": "t_bool"
      },
      "t_mapping(t_uint256,t_int32)": {
        "encoding": "mapping",
        "key": "t_uint256",
        "label": "mapping(uint256 => int32)",
        "numberOfBytes": "32",
        "value": "t_int32"
      },
      "t_mapping(t_uint32,t_array(t_address)dyn_storage)": {
        "encoding": "mapping",
        "key": "t_uint32",
        "label": "mapping(uint32 => address[])",
        "numberOfBytes": "32",
        "value": "t_array(t_address)dyn_storage"
      },
      "t_mapping(t_uint32,t_uint32)": {
        "encoding": "mapping",
        "key": "t_uint32",
        "label": "mapping(uint32 => uint32)",
        "numberOfBytes": "32",
        "value": "t_uint32"
      },
      "t_uint256": {
        "encoding": "inplace",
        "label": "uint256",
        "numberOfBytes": "32"
      },
      "t_uint32": {
        "encoding": "inplace",
        "label": "uint32",
        "numberOfBytes": "4"
      }
    }
  }
}