{
  "address": "0x8aF04F765e5Bef3e96c0b3f16011DD45a44c0f2e",
  "abi": [
    {
      "inputs": [],
      "stateMutability": "nonpayable",
      "type": "constructor"
    },
    {
      "inputs": [
        {
          "internalType": "uint16",
          "name": "currentMonth",
          "type": "uint16"
        },
        {
          "internalType": "uint16",
          "name": "currentYear",
          "type": "uint16"
        },
        {
          "internalType": "bool",
          "name": "isTesting",
          "type": "bool"
        }
      ],
      "name": "init",
      "outputs": [],
      "stateMutability": "nonpayable",
      "type": "function"
    }
  ],
  "transactionHash": "0x47e460317bdabee12110a72b04a741ff9d104a2ed824397bbfc6e451584134ec",
  "args": [],
  "numDeployments": 5,
  "solcInputHash": "e0b27531814e45376cec7256a3cd64b4",
  "bytecode": "0x60806040523461007a577fc8fcad8db84d3cc18b4c41d551ea0ee66dd599cde068d998e57d5e09332c13208054336001600160a01b0319821681179092556001600160a01b03167f8be0079c531659141344cd1fd0a4f28419497f9722a3daafe3b4186f6b6457e060006080a361037c806100806080396080f35b600080fdfe6080604052600436101561001257600080fd5b6000803560e01c6359259007146100295750600080fd5b346100775760603660031901126100775760043561ffff81168114156100735761005161007a565b6044359081151582141561006d5761006892610093565b604051f35b50505080fd5b5080fd5b80fd5b6024359061ffff821682141561008c57565b5050600080fd5b919060018060a01b037fc8fcad8db84d3cc18b4c41d551ea0ee66dd599cde068d998e57d5e09332c132054163314156100d1576100cf92610145565b565b50505050608460405162461bcd60e51b815260206004820152602c60248201527f4f6e6c79206f776e657220697320616c6c6f77656420746f20706572666f726d60448201526b103a3434b99030b1ba34b7b760a11b6064820152fd5b50634e487b7160e01b600052601160045260246000fd5b6101f892600c926101f19261ffff80958180809416946001861061032b575b1680830482118115151661031e575b02169160001901168094038111610311575b63ffff00007f033cb808a453240b3c9916e6d1ccc504e492e2b2453192ff241c73847a521d06948554920160101b169063ffff000019161783557f033cb808a453240b3c9916e6d1ccc504e492e2b2453192ff241c73847a521d119060ff801983541691151516179055565b5460ff1690565b6100cf577f033cb808a453240b3c9916e6d1ccc504e492e2b2453192ff241c73847a521d06805461ff0019166101001790556307e4c70760e21b6000527fc8fcad8db84d3cc18b4c41d551ea0ee66dd599cde068d998e57d5e09332c131f60205261028b7ff97e938d8af42f52387bb74b8b526fda8f184cc2aa534340a8d75a88fbecc7755b805460ff19166001179055565b6348e2b09360e01b6000527fc8fcad8db84d3cc18b4c41d551ea0ee66dd599cde068d998e57d5e09332c131f6020526102e37f65d510a5d8f7ef134ec444f7f34ee808c8eeb5177cdfd16be0c40fe1ab43369561027e565b7f033cb808a453240b3c9916e6d1ccc504e492e2b2453192ff241c73847a521d06805460ff19166001179055565b61031961012e565b610185565b61032661012e565b610173565b61033361012e565b61016456fea36469706673582212209e547bfd2f90c6247446def58ea607e0dc44eb8b4ee2a9832495487fd32355006c6578706572696d656e74616cf564736f6c634300080a0041",
  "devdoc": {
    "kind": "dev",
    "methods": {},
    "version": 1
  },
  "userdoc": {
    "kind": "user",
    "methods": {},
    "version": 1
  },
  "storageLayout": {
    "storage": [],
    "types": null
  }
}