{
  "address": "0x7307Bf83C08c280b10CABDc0749d95343E9D727C",
  "abi": [
    {
      "inputs": [],
      "stateMutability": "nonpayable",
      "type": "constructor"
    },
    {
      "inputs": [
        {
          "internalType": "uint16",
          "name": "currentMonth",
          "type": "uint16"
        },
        {
          "internalType": "uint16",
          "name": "currentYear",
          "type": "uint16"
        },
        {
          "internalType": "bool",
          "name": "isTesting",
          "type": "bool"
        }
      ],
      "name": "init",
      "outputs": [],
      "stateMutability": "nonpayable",
      "type": "function"
    }
  ],
  "args": [],
  "numDeployments": 5,
  "solcInputHash": "4d4eccc3dfa88c2ce2e2bb27a51b0e40",
  "bytecode": "0x60806040523461007a577fc8fcad8db84d3cc18b4c41d551ea0ee66dd599cde068d998e57d5e09332c13208054336001600160a01b0319821681179092556001600160a01b03167f8be0079c531659141344cd1fd0a4f28419497f9722a3daafe3b4186f6b6457e060006080a36105a5806100806080396080f35b600080fdfe6080604052600436101561001257600080fd5b6000803560e01c6359259007146100295750600080fd5b346100775760603660031901126100775760043561ffff81168114156100735761005161007a565b6044359081151582141561006d5761006892610093565b604051f35b50505080fd5b5080fd5b80fd5b6024359061ffff821682141561008c57565b5050600080fd5b919060018060a01b037fc8fcad8db84d3cc18b4c41d551ea0ee66dd599cde068d998e57d5e09332c132054163314156100d1576100cf92610266565b565b50505050608460405162461bcd60e51b815260206004820152602c60248201527f4f6e6c79206f776e657220697320616c6c6f77656420746f20706572666f726d60448201526b103a3434b99030b1ba34b7b760a11b6064820152fd5b50634e487b7160e01b600052601160045260246000fd5b61ffff1660018110610159575b6000190190565b61016161012e565b610152565b600c9061ffff809116809104821181151516610180570290565b61018861012e565b0290565b9061ffff80809316911680920381116101a3570190565b6101ab61012e565b0190565b60405190610600820182811067ffffffffffffffff8211176101d057604052565b505050634e487b7160e01b600052604160045260246000fd5b7f033cb808a453240b3c9916e6d1ccc504e492e2b2453192ff241c73847a521d0760009182905b6030821061021e5750505050565b60208160ff600493511685548760031b63ffffffff811b9283911b1691191617855501930190601c8211610257575b6001019092610210565b6001909201916000915061024d565b6102886102e3939261028361027d6102b194610145565b91610166565b61018c565b6000805160206105428339815191529063ffff000082549160101b169063ffff00001916179055565b7f033cb808a453240b3c9916e6d1ccc504e492e2b2453192ff241c73847a521d119060ff801983541691151516179055565b6000805160206105428339815191525460ff166100cf576104506103056101af565b60008082528060208301528060408301528060608301528060808301528060a08301528060c08301528060e08301528061010083015280610120830152806101408301528061016083015280610180830152806101a0830152806101c0830152806101e08301528061020083015280610220830152806102408301528061026083015280610280830152806102a0830152806102c0830152806102e08301528061030083015280610320830152806103408301528061036083015280610380830152806103a0830152806103c0830152806103e08301528061040083015280610420830152806104408301528061046083015280610480830152806104a0830152806104c0830152806104e08301528061050083015280610520830152806105408301528061056083015280610580830152806105a0830152806105c08301526105e08201526101e9565b600080516020610542833981519152805461ff0019166101001790556307e4c70760e21b6000527fc8fcad8db84d3cc18b4c41d551ea0ee66dd599cde068d998e57d5e09332c131f6020526104cd7ff97e938d8af42f52387bb74b8b526fda8f184cc2aa534340a8d75a88fbecc7755b805460ff19166001179055565b6348e2b09360e01b6000527fc8fcad8db84d3cc18b4c41d551ea0ee66dd599cde068d998e57d5e09332c131f6020526105257f65d510a5d8f7ef134ec444f7f34ee808c8eeb5177cdfd16be0c40fe1ab4336956104c0565b600080516020610542833981519152805460ff1916600117905556fe033cb808a453240b3c9916e6d1ccc504e492e2b2453192ff241c73847a521d06a36469706673582212204a5cc14f1fc497f7a22960074a3e94c62b9d0945e1aaa43ef1489c4271bc8fb76c6578706572696d656e74616cf564736f6c634300080a0041",
  "devdoc": {
    "kind": "dev",
    "methods": {},
    "version": 1
  },
  "userdoc": {
    "kind": "user",
    "methods": {},
    "version": 1
  },
  "storageLayout": {
    "storage": [],
    "types": null
  }
}