{
  "address": "0xC220Ed128102d888af857d137a54b9B7573A41b2",
  "abi": [
    {
      "anonymous": false,
      "inputs": [
        {
          "indexed": false,
          "internalType": "uint64",
          "name": "donatedFinney",
          "type": "uint64"
        },
        {
          "indexed": false,
          "internalType": "string",
          "name": "name",
          "type": "string"
        },
        {
          "indexed": false,
          "internalType": "uint16",
          "name": "months",
          "type": "uint16"
        },
        {
          "indexed": false,
          "internalType": "uint16",
          "name": "currentMonth",
          "type": "uint16"
        },
        {
          "indexed": false,
          "internalType": "uint16",
          "name": "currentYear",
          "type": "uint16"
        }
      ],
      "name": "Donated",
      "type": "event"
    },
    {
      "anonymous": false,
      "inputs": [
        {
          "indexed": false,
          "internalType": "uint32",
          "name": "shareFinney",
          "type": "uint32"
        },
        {
          "indexed": false,
          "internalType": "uint32",
          "name": "transferDateId",
          "type": "uint32"
        },
        {
          "indexed": false,
          "internalType": "uint16",
          "name": "transferFromDonationBucketPos",
          "type": "uint16"
        },
        {
          "indexed": false,
          "internalType": "uint16",
          "name": "month",
          "type": "uint16"
        },
        {
          "indexed": false,
          "internalType": "uint16",
          "name": "year",
          "type": "uint16"
        }
      ],
      "name": "RemovedFromDonationBucket",
      "type": "event"
    },
    {
      "anonymous": false,
      "inputs": [
        {
          "indexed": false,
          "internalType": "uint256",
          "name": "amount",
          "type": "uint256"
        },
        {
          "indexed": false,
          "internalType": "address",
          "name": "to",
          "type": "address"
        },
        {
          "indexed": false,
          "internalType": "uint16",
          "name": "month",
          "type": "uint16"
        },
        {
          "indexed": false,
          "internalType": "uint16",
          "name": "year",
          "type": "uint16"
        }
      ],
      "name": "TransferedFairShare",
      "type": "event"
    },
    {
      "anonymous": false,
      "inputs": [
        {
          "indexed": false,
          "internalType": "string",
          "name": "url",
          "type": "string"
        },
        {
          "indexed": false,
          "internalType": "bool",
          "name": "up",
          "type": "bool"
        },
        {
          "indexed": false,
          "internalType": "string",
          "name": "title",
          "type": "string"
        },
        {
          "indexed": false,
          "internalType": "address",
          "name": "receiver",
          "type": "address"
        },
        {
          "indexed": false,
          "internalType": "address",
          "name": "sender",
          "type": "address"
        }
      ],
      "name": "Voted",
      "type": "event"
    },
    {
      "inputs": [
        {
          "internalType": "uint16",
          "name": "months",
          "type": "uint16"
        },
        {
          "internalType": "string",
          "name": "name",
          "type": "string"
        },
        {
          "internalType": "uint16",
          "name": "currentMonth",
          "type": "uint16"
        },
        {
          "internalType": "uint16",
          "name": "currentYear",
          "type": "uint16"
        }
      ],
      "name": "donate",
      "outputs": [],
      "stateMutability": "payable",
      "type": "function"
    },
    {
      "inputs": [],
      "name": "donationBuckets",
      "outputs": [
        {
          "components": [
            {
              "internalType": "uint16",
              "name": "startMonth",
              "type": "uint16"
            },
            {
              "internalType": "uint16",
              "name": "startYear",
              "type": "uint16"
            },
            {
              "internalType": "uint32[48]",
              "name": "donationBuckets",
              "type": "uint32[48]"
            }
          ],
          "internalType": "struct PeoplesPlatformFacet.DonationBuckets",
          "name": "",
          "type": "tuple"
        }
      ],
      "stateMutability": "view",
      "type": "function"
    },
    {
      "inputs": [],
      "name": "setDonatingActive",
      "outputs": [],
      "stateMutability": "nonpayable",
      "type": "function"
    },
    {
      "inputs": [],
      "name": "setDonatingInactive",
      "outputs": [],
      "stateMutability": "nonpayable",
      "type": "function"
    },
    {
      "inputs": [
        {
          "internalType": "address payable",
          "name": "to",
          "type": "address"
        },
        {
          "internalType": "uint16",
          "name": "month",
          "type": "uint16"
        },
        {
          "internalType": "uint16",
          "name": "year",
          "type": "uint16"
        },
        {
          "internalType": "uint16",
          "name": "currentMonth",
          "type": "uint16"
        },
        {
          "internalType": "uint16",
          "name": "currentYear",
          "type": "uint16"
        }
      ],
      "name": "transfer",
      "outputs": [],
      "stateMutability": "nonpayable",
      "type": "function"
    },
    {
      "inputs": [
        {
          "internalType": "string",
          "name": "url",
          "type": "string"
        },
        {
          "internalType": "bool",
          "name": "up",
          "type": "bool"
        },
        {
          "internalType": "address",
          "name": "receiver",
          "type": "address"
        },
        {
          "internalType": "string",
          "name": "title",
          "type": "string"
        },
        {
          "internalType": "uint16",
          "name": "currentMonth",
          "type": "uint16"
        },
        {
          "internalType": "uint16",
          "name": "currentYear",
          "type": "uint16"
        }
      ],
      "name": "vote",
      "outputs": [],
      "stateMutability": "nonpayable",
      "type": "function"
    }
  ],
  "transactionHash": "0xd28cdb15e7e699966f6f9f416eb68c1d643e4983ac83f69db3f62ed262b5af9f",
  "args": [],
  "numDeployments": 11,
  "solcInputHash": "92e96d71970bd7921730aecd28b7bfb0",
  "bytecode": "0x6080806040523461001657611634908161001d8239f35b50600080fdfe6040608081526004361015610015575b50600080fd5b600090813560e01c80635f592bb5146100fb578063ad3337a2146100e5578063afd4e2b4146100ca578063c3269df9146100b3578063d61bcd8c146100925763db75953b14610064575061000f565b3461008e5761008a915061007736610112565b61007f611513565b90519182918261037f565b0390f35b5080fd5b503461008e576100b06100a436610304565b94939093929192610c01565b51f35b503461008e576100c236610112565b6100b0610486565b503461008e576100b06100dc366102a2565b93929092611050565b506100b06100f23661022a565b929190916108fc565b503461008e5761010a36610112565b6100b0610434565b600090600319011261000f57565b60a4359061ffff821682141561013257565b5050600080fd5b50634e487b7160e01b600052604160045260246000fd5b610600810190811067ffffffffffffffff82111761016d57604052565b610175610139565b604052565b604051906060820182811067ffffffffffffffff82111761016d57604052565b81601f820112156102225780359067ffffffffffffffff92838311610215575b60405193601f8401601f19908116603f0116850190811185821017610208575b604052828452602083830101116101ff57816000926020809301838601378301015290565b50505050600080fd5b610210610139565b6101da565b61021d610139565b6101ba565b505050600080fd5b9060806003198301126101325761ffff6004358181168114156101ff57926024359067ffffffffffffffff8211610286576102679160040161019a565b9160443582811681141561028657916064359081168114156102865790565b5050505050600080fd5b6001600160a01b038116141561000f57565b60a090600319011261000f576004356102ba81610290565b9061ffff906024358281168114156101ff579160443581811681141561028657916064358281168114156102f957916084359081168114156102f95790565b505050505050600080fd5b60c06003198201126101325767ffffffffffffffff906004358281116101ff57816103319160040161019a565b92602435801515811415610286579260443561034c81610290565b926064359182116102f9576103639160040161019a565b9060843561ffff81168114156102f9579061037c610120565b90565b91909161064081019260408061ffff92838151168552602093848201511684860152015192016000905b603082106103b75750505050565b828060019263ffffffff8751168152019401910190926103a9565b156103d957565b5060405162461bcd60e51b815260206004820152602c60248201527f4f6e6c79206f776e657220697320616c6c6f77656420746f20706572666f726d60448201526b103a3434b99030b1ba34b7b760a11b6064820152608490fd5b61046860018060a01b037fc8fcad8db84d3cc18b4c41d551ea0ee66dd599cde068d998e57d5e09332c1320541633146103d2565b6000805160206115d1833981519152805461ff001916610100179055565b6104ba60018060a01b037fc8fcad8db84d3cc18b4c41d551ea0ee66dd599cde068d998e57d5e09332c1320541633146103d2565b6000805160206115d1833981519152805461ff0019169055565b156104db57565b5060405162461bcd60e51b815260206004820152604260248201527f50726f766964652063757272656e744d6f6e74682061732063616c656e64617260448201527f206d6f6e7468207374617274696e672077697468203120616e64206c61737420606482015261189960f11b608482015260a490fd5b50634e487b7160e01b600052601160045260246000fd5b61ffff166001811061057d575b6000190190565b610585610552565b610576565b61ffff918216911681811061059d570390565b6105a5610552565b0390565b156105b057565b50606460405162461bcd60e51b815260206004820152602060248201527f4f6e6c79207570746f203234206d6f6e74687320697320737570706f727465646044820152fd5b50634e487b7160e01b600052601260045260246000fd5b8115610616570690565b61061e6105f5565b0690565b1561062957565b5060405162461bcd60e51b815260206004820152603860248201527f506179656420616d6f756e74206d75737420626520646576696461626c65206260448201527f7920746865206469737472696275746564206d6f6e74687300000000000000006064820152608490fd5b1561069c57565b5060405162461bcd60e51b815260206004820152603a60248201527f4c657373207468616e20312066696e6e657928312f313030302045544829206660448201527f72616374696f6e7320617265206e6f7420737570706f727465640000000000006064820152608490fd5b8115610712570490565b61071a6105f5565b0490565b1561072557565b5060405162461bcd60e51b815260206004820152603c60248201527f446f6e6174696f6e73206c6172676572207468616e20315f3030305f3030305f60448201527f3030302066696e6e657920617265206e6f7420737570706f72746564000000006064820152608490fd5b600c9061ffff8091168091048211811515166107ab570290565b6107b3610552565b0290565b9061ffff80809316911680920381116107ce570190565b6107d6610552565b0190565b60019063ffffffff8091169081146107ce570190565b9063ffffffff80809316911680920381116107ce570190565b50634e487b7160e01b600052603260045260246000fd5b90603082101561085b575b601c8260031c7f033cb808a453240b3c9916e6d1ccc504e492e2b2453192ff241c73847a521d07019260021b1690565b610863610809565b61082b565b91908251928382526000905b8482106108a1575092806020939411610894575b601f01601f1916010190565b6000838284010152610888565b90602090818082850101519082860101520190610874565b93916108e29067ffffffffffffffff60809598979316865260a0602087015260a0860190610868565b9561ffff9283809216604087015216606085015216910152565b939091929361ffff9461091b8686168015159081610a99575b506104d4565b61092485610569565b95821694610934601987106105a9565b610947610941873461060c565b15610622565b66038d7ea4c6800061095b81340615610695565b34049261096e633b9aca0085111561071e565b6109c06109b961099c61098d6109848b89610708565b63ffffffff1690565b9a61099787610791565b6107b7565b6000805160206115d18339815191525460101c61ffff169061058a565b61ffff1690565b96875b6109d0610984838b6107f0565b63ffffffff821690811015610a505791610a4761098492610a428d610a20610a1a60306109d0990692610a15610a0585610820565b905463ffffffff9160031b1c1690565b6107f0565b91610820565b90919082549060031b9163ffffffff9283811b93849216901b16911916179055565b6107da565b915091506109c3565b505050610a94939497507f6a7f8439932380592f144688013b66f9f08c6c8571bc599d1b18ceae2cf67ed3965067ffffffffffffffff9560405196879616866108b9565b0390a1565b600d91501038610915565b811981116107ce570190565b6000527f033cb808a453240b3c9916e6d1ccc504e492e2b2453192ff241c73847a521d0e602052604060002090565b63ffffffff166000527f033cb808a453240b3c9916e6d1ccc504e492e2b2453192ff241c73847a521d0d602052604060002090565b8054821015610b2d575b60005260206000200190600090565b610b35610809565b610b1e565b8054610b5d9168010000000000000000821015610b80575b600182018155610b14565b819291549060031b9160018060a01b039283811b93849216901b16911916179055565b610b88610139565b610b52565b60030b637fffffff19811461057d576000190190565b60019060030b637fffffff81146107ce570190565b9391608093610bd5610bea9398979860a0885260a0880190610868565b91151560208701528582036040870152610868565b6001600160a01b0391821660608501529416910152565b90929391610a94927fbe341f6f6a7d9bc7a1b3a4b9a8ee5c3f7c504c067b5de2fff0868cfb6e06f28d9661111160901b8084161415610c4b575b5050604051948594339386610bb8565b610c5b916109976109b992610791565b610c7a63ffffffff8216601484901b62100000600160b41b0316610aa4565b9082610cc0610cbc610cb5856000527f033cb808a453240b3c9916e6d1ccc504e492e2b2453192ff241c73847a521d0f602052604060002090565b5460ff1690565b1590565b610d2c575b50508415610d0857610cd9610d0191610ab0565b610cec610ce7825460030b90565b610ba3565b63ffffffff198254169063ffffffff16179055565b3880610c3b565b610d14610d2791610ab0565b610cec610d22825460030b90565b610b8d565b610d01565b610d94610d9992610d76610d69866000527f033cb808a453240b3c9916e6d1ccc504e492e2b2453192ff241c73847a521d0f602052604060002090565b805460ff19166001179055565b610d8f610d8286610ab0565b805463ffffffff19169055565b610adf565b610b3a565b3882610cc5565b15610da757565b5060405162461bcd60e51b815260206004820152604260248201527f596f75722063616e206f6e6c79207472616e7366657220796f7572207368617260448201527f6520666f72206d6f6e7468206265666f7265207468652063757272656e74206f6064820152616e6560f01b608482015260a490fd5b63ffffffff918216911681811061059d570390565b15610e3a57565b5060405162461bcd60e51b815260206004820152603360248201527f596f75722063616e2774207472616e7366657220736861726573206d6f7265206044820152723a3430b710191a1036b7b73a34399030b3b79760691b6064820152608490fd5b15610ea357565b5060405162461bcd60e51b815260206004820152601860248201527f536861726520616c7265616479207472616e73666572656400000000000000006044820152606490fd5b15610ef057565b5060405162461bcd60e51b815260206004820152602a60248201527f596f752068617665206e6f7420656e6f756768207570766f74657320746f20626044820152696520656c696769626c6560b01b6064820152608490fd5b60019060001981146107ce570190565b9067ffffffffffffffff80809316911680920381116107ce570190565b63ffffffff91828092169182911692048211811515166107ab570290565b9067ffffffffffffffff809116918215610fad57160490565b610fb56105f5565b160490565b15610fc157565b5060405162461bcd60e51b815260206004820152602f60248201527f4e6f7420656e6f75676820646f6e6174696f6e7320666f722074686174206d6f60448201526e373a34399030bb30b4b630b136329760891b6064820152608490fd5b66ffffffffffffff8091168066038d7ea4c6800092048211811515166107ab570290565b506040513d6000823e3d90fd5b9361106291936109976109b992610791565b6110726109b98461099785610791565b9463ffffffff926110a06018856110998a828116976110948482168a10610da0565b610e1e565b1610610e33565b6110ad833360141b610aa4565b906110ed6110e7610cb5846000527f033cb808a453240b3c9916e6d1ccc504e492e2b2453192ff241c73847a521d10602052604060002090565b15610e9c565b6000956111108761110761110086610ab0565b5460030b90565b60030b13610ee9565b8695875b61111d8b610adf565b548110156111c6576111748761116f61116961115d8f6111488761114361115d93610adf565b610b14565b905460039190911b1c6001600160a01b031690565b6001600160a01b031690565b60141b90565b610aa4565b8961118a61118461110084610ab0565b60030b90565b1361119f575b5061119a90610f49565b611114565b61119a91986111b96109846109846111006111bf95610ab0565b90610f59565b9790611190565b5090929591939896978895506000805160206115d1833981519152546111f19061ffff9060101c1690565b61ffff166111ff9089610e1e565b603061ffff91909116069261121384610820565b905460039190911b1c63ffffffff1661122b89610ab0565b5460030b63ffffffff1661123e91610f76565b63ffffffff169061124e91610f94565b63ffffffff169661125e84610820565b905460039190911b1c63ffffffff1683891693849116101561127f90610fba565b61128884610820565b81548a90600383901b1c63ffffffff16906112a291610e1e565b825463ffffffff60039390931b83811b80199092169390921690911b161790556112f5906000527f033cb808a453240b3c9916e6d1ccc504e492e2b2453192ff241c73847a521d10602052604060002090565b805460ff191660011790556113098261101f565b869066ffffffffffffff1692878085159c610a949a7feb338d42e19428a462947fce4ff0c28c2ccae6f7ecdb16beb0dc981f98ae967c977fd60ef7047ec8bfc45d19c2ec01830d929258bf2a7ae675fde3dab44fa17f2f769f9661138297611409575b6001600160a01b03891690f1156113fc5761101f565b6040805166ffffffffffffff9290921682526001600160a01b0392909216602082015261ffff858116928201929092529085166060820152608090a16040519586958693919594909260809360a086019763ffffffff809216875216602086015261ffff9283809216604087015216606085015216910152565b611404611043565b61101f565b506108fc61136c565b60408051919060007f033cb808a453240b3c9916e6d1ccc504e492e2b2453192ff241c73847a521d07845b60306007840110611457575050505061145582610150565b565b600161010060089261150785546114fc63ffffffff61147d8582851663ffffffff169052565b61149460208285828901921c1663ffffffff169052565b63ffffffff838c1c821616858c01526114ba60608285828901921c1663ffffffff169052565b6114d160808285828901921c1663ffffffff169052565b6114e860a08285828901921c1663ffffffff169052565b60c09083828701921c1663ffffffff169052565b60e090811c90830152565b0192019201919061143d565b6040516060810181811067ffffffffffffffff8211176115c3575b6040526000815260006020820152604080519161154a83610150565b610600368437015261ffff6115a6600c826000805160206115d18339815191525460101c1692818406169261fffe84116115b6575b611598600161158c61017a565b9501859061ffff169052565b04602083019061ffff169052565b6115ae611412565b604082015290565b6115be610552565b61157f565b6115cb610139565b61152e56fe033cb808a453240b3c9916e6d1ccc504e492e2b2453192ff241c73847a521d06a3646970667358221220abdd9da655081c2354ff6137134818eed9afc9d8552fbe742d999cfb8e12e1d06c6578706572696d656e74616cf564736f6c634300080a0041",
  "devdoc": {
    "details": "Implementation of https://eips.ethereum.org/EIPS/eip-721[ERC721] Non-Fungible Token Standard, including the Metadata extension, but not including the Enumerable extension, which is available separately as {ERC721Enumerable}.",
    "kind": "dev",
    "methods": {},
    "version": 1
  },
  "userdoc": {
    "kind": "user",
    "methods": {},
    "version": 1
  },
  "storageLayout": {
    "storage": [],
    "types": null
  }
}